S01400005072756562615F526164696F2E7372656363
S113000099C00000A9C00000A7C00000A5C000005E
S1130010A3C00000A1C000009FC000009DC000005C
S11300209BC0000099C0000097C0000095C000006C
S113003093C0000091C000008FC000008DC000007C
S11300408BC0000089C0000087C0000085C000008C
S113005083C0000081C000007FC000007DC000009C
S11300607BC0000079C0000077C0000075C00000AC
S113007073C0000071C000006FC000006DC00000BC
S11300806BC0000069C0000067C0000065C00000CC
S113009063C0000061C000005FC000005DC00000DC
S11300A05BC0000059C0000057C0000055C00000EC
S11300B053C0000051C000004FC000004DC00000FC
S11300C04BC0000049C0000047C0000045C000000C
S11300D043C0000041C000003FC000003DC000001C
S11300E03BC0000039C0000037C0000050C1000010
S11300F0C1C0000031C000002FC00000A9C0000032
S11301002BC0000029C0000027C0000025C000004B
S113011023C0000021C000001FC000001DC000005B
S11301201BC0000019C0000017C0000015C000006B
S113013013C0000011241FBECFEFD1E8DEBFCDBF36
S113014000E00CBF22E0A0E0B2E001C01D92A6389E
S1130150B207E1F773D039C153CFE1E0F2E081E8AF
S113016092E01192E817F907E1F7109283021092D6
S113017082021092810210928002E9E3F1E0808110
S11301808160808310924E0188E0809342018FE168
S11301909EE40197F1F700C00000E4E4F1E08081FF
S11301A0806280838CE480934E01809100028B30C6
S11301B020F0809100028B3150F08BE0809300029C
S11301C0E8E4F1E080E180838081857F8083E2E45C
S11301D0F1E08081877F808386E080830895209189
S11301E080023091810280918202909183022817CB
S11301F0390789F0E2E8F2E0A081B181AF5FBD4F39
S11302008C91208131812F5F3F4F2F7733273183AA
S1130210208390E0089580E090E00895A89514BEAE
S1130220E0E6F0E080818861808310820895F8948C
S1130230F5DF80E184B985B978940895F8DF8DDF1E
S1130240C0E1CDDF0297E9F785B18C2785B9F9CFF5
S11302501F920F920FB60F9211248F939F9395B113
S113026080E1892785B99F918F910F900FBE0F90E0
S11302701F9018951F920F920FB60F9211240BB670
S11302800F92CF92DF92FF920F931F932F933F937E
S11302904F935F936F937F938F939F93AF93BF938A
S11302A0EF93FF93CF93DF93CDB7DEB7DA95DEBF3D
S11302B0CDBF809184029091850287709927892B04
S11302C009F445C0F0907B010F2D10E0A80160E80F
S11302D071E0CE01019670D08091800290918102EC
S11302E001968F7799272091820230918302821799
S11302F0930769F122E0F21651F1FE013196A8014B
S11303004250510920E030E00F2EF0E8CF2EF2E009
S1130310DF2EF02D02E812E0D6016D917C912F5F63
S11303203F4FF08032966F5F7D4FDB01FC92D60128
S113033011969C938E9301968F779927D8016D918E
S11303407C916817790719F02417350729F7D39595
S11303500FB6F894DEBF0FBECDBFDF91CF91FF91F2
S1130360EF91BF91AF919F918F917F916F915F9129
S11303704F913F912F911F910F91FF90DF90CF905C
S11303800F900BBE0F900FBE0F901F9018951F92E9
S11303900F920FB60F9211248F939F938091460171
S11303A090E090938502809384029F918F910F90A7
S11303B00FBE0F901F901895FB01DC0102C0019045
S11103C00D9241505040D8F70895F894FFCFA5
S9030000FC
